{
  "_format": "hh-sol-artifact-1",
  "contractName": "BattleshipFactory",
  "sourceName": "contracts/BattleshipFactory.sol",
  "abi": [
    {
      "anonymous": false,
      "inputs": [
        {
          "indexed": true,
          "internalType": "address",
          "name": "gameAddress",
          "type": "address"
        },
        {
          "indexed": true,
          "internalType": "address",
          "name": "creator",
          "type": "address"
        },
        {
          "indexed": false,
          "internalType": "uint8",
          "name": "boardSize",
          "type": "uint8"
        },
        {
          "indexed": false,
          "internalType": "uint8",
          "name": "shipCount",
          "type": "uint8"
        }
      ],
      "name": "GameCreated",
      "type": "event"
    },
    {
      "inputs": [
        {
          "internalType": "uint8",
          "name": "boardSize",
          "type": "uint8"
        },
        {
          "internalType": "uint8",
          "name": "shipCount",
          "type": "uint8"
        }
      ],
      "name": "createGame",
      "outputs": [
        {
          "internalType": "address",
          "name": "gameAddress",
          "type": "address"
        }
      ],
      "stateMutability": "nonpayable",
      "type": "function"
    },
    {
      "inputs": [
        {
          "internalType": "address",
          "name": "",
          "type": "address"
        }
      ],
      "name": "gameInfo",
      "outputs": [
        {
          "internalType": "address",
          "name": "creator",
          "type": "address"
        },
        {
          "internalType": "address",
          "name": "opponent",
          "type": "address"
        },
        {
          "internalType": "uint8",
          "name": "boardSize",
          "type": "uint8"
        },
        {
          "internalType": "uint8",
          "name": "shipCount",
          "type": "uint8"
        },
        {
          "internalType": "bool",
          "name": "isActive",
          "type": "bool"
        }
      ],
      "stateMutability": "view",
      "type": "function"
    },
    {
      "inputs": [
        {
          "internalType": "uint256",
          "name": "",
          "type": "uint256"
        }
      ],
      "name": "games",
      "outputs": [
        {
          "internalType": "address",
          "name": "",
          "type": "address"
        }
      ],
      "stateMutability": "view",
      "type": "function"
    },
    {
      "inputs": [],
      "name": "getGameCount",
      "outputs": [
        {
          "internalType": "uint256",
          "name": "",
          "type": "uint256"
        }
      ],
      "stateMutability": "view",
      "type": "function"
    }
  ],
  "bytecode": "0x6080604052348015600e575f5ffd5b50611ff18061001c5f395ff3fe608060405234801561000f575f5ffd5b506004361061004a575f3560e01c8063117a5b901461004e5780631346a76d1461007e578063a6e3419014610091578063e87c0ee614610156575b5f5ffd5b61006161005c3660046104e6565b610166565b6040516001600160a01b0390911681526020015b60405180910390f35b61006161008c366004610512565b61018d565b61011b61009f366004610543565b600160208190525f918252604090912080549101546001600160a01b039182169181169060ff740100000000000000000000000000000000000000008204811691750100000000000000000000000000000000000000000081048216917601000000000000000000000000000000000000000000009091041685565b604080516001600160a01b03968716815295909416602086015260ff928316938501939093521660608301521515608082015260a001610075565b5f54604051908152602001610075565b5f8181548110610174575f80fd5b5f918252602090912001546001600160a01b0316905081565b5f60038360ff16101580156101a65750600a8360ff1611155b6102035760405162461bcd60e51b815260206004820152602360248201527f426f6172642073697a65206d757374206265206265747765656e203320616e6460448201526202031360ec1b60648201526084015b60405180910390fd5b60028260ff1610156102575760405162461bcd60e51b815260206004820152601a60248201527f4d7573742068617665206174206c65617374203220736869707300000000000060448201526064016101fa565b60026102638480610570565b61026d919061059f565b60ff168260ff1611156102c25760405162461bcd60e51b815260206004820152601d60248201527f546f6f206d616e7920736869707320666f7220626f6172642073697a6500000060448201526064016101fa565b5f3384846040516102d2906104d9565b6001600160a01b03909316835260ff9182166020840152166040820152606001604051809103905ff08015801561030b573d5f5f3e3d5ffd5b5090508091505f82908060018154018082558091505060019003905f5260205f20015f9091909190916101000a8154816001600160a01b0302191690836001600160a01b031602179055506040518060a00160405280336001600160a01b031681526020015f6001600160a01b031681526020018560ff1681526020018460ff1681526020016001151581525060015f846001600160a01b03166001600160a01b031681526020019081526020015f205f820151815f015f6101000a8154816001600160a01b0302191690836001600160a01b031602179055506020820151816001015f6101000a8154816001600160a01b0302191690836001600160a01b0316021790555060408201518160010160146101000a81548160ff021916908360ff16021790555060608201518160010160156101000a81548160ff021916908360ff16021790555060808201518160010160166101000a81548160ff021916908315150217905550905050336001600160a01b0316826001600160a01b03167f32dd34422b5509e1c8f938b34ddfb137d2314a6835cd1109c201f66acb80b6c686866040516104ca92919060ff92831681529116602082015260400190565b60405180910390a35092915050565b611a18806105cd83390190565b5f602082840312156104f6575f5ffd5b5035919050565b803560ff8116811461050d575f5ffd5b919050565b5f5f60408385031215610523575f5ffd5b61052c836104fd565b915061053a602084016104fd565b90509250929050565b5f60208284031215610553575f5ffd5b81356001600160a01b0381168114610569575f5ffd5b9392505050565b60ff818116838216029081169081811461059857634e487b7160e01b5f52601160045260245ffd5b5092915050565b5f60ff8316806105bd57634e487b7160e01b5f52601260045260245ffd5b8060ff8416049150509291505056fe60c060405234801561000f575f5ffd5b50604051611a18380380611a1883398101604081905261002e916103d9565b6100e2610039610255565b80517f9e7b61f58c47dc699ac88507c4f5bb9f121c03808c5676a8078fe583e464970080546001600160a01b03199081166001600160a01b039384161790915560208301517f9e7b61f58c47dc699ac88507c4f5bb9f121c03808c5676a8078fe583e46497018054831691841691909117905560408301517f9e7b61f58c47dc699ac88507c4f5bb9f121c03808c5676a8078fe583e46497028054909216921691909117905550565b60038260ff16101580156100fa5750600a8260ff1611155b6101405760405162461bcd60e51b8152602060048201526012602482015271496e76616c696420626f6172642073697a6560701b60448201526064015b60405180910390fd5b60028160ff1610156101945760405162461bcd60e51b815260206004820152601a60248201527f4d7573742068617665206174206c6561737420322073686970730000000000006044820152606401610137565b60026101a0838061043a565b6101aa919061045d565b60ff168160ff1611156101f05760405162461bcd60e51b815260206004820152600e60248201526d546f6f206d616e7920736869707360901b6044820152606401610137565b6080516102009060ff168061048a565b5f8054600180546001600160a01b03979097166001600160a01b03199097169690961790955560ff9384166080529190921660a0526001600160881b03199092166001600160801b03919091161790556104ac565b604080516060810182525f8082526020820181905291810191909152466001036102ae575060408051606080820183525f8083526020808401829052928401819052835191820184528082529181018290529182015290565b4662aa36a70361032d575060408051606080820183525f8083526020808401829052928401528251908101835273f0ffdc93b7e186bc2f8cb3daa75d86d1930a433d81527392c920834ec8941d2c77d188936e1f7a6f49c1279181019190915273be0e383937d564d7ff0bc3b46c51f0bf8d5c311a9181019190915290565b46617a69036103ab575060408051606080820183525f808352602080840182905292840152825190810183527350157cffd6bbfa2dece204a89ec419c23ef5755d815273e3a9105a3a932253a70f126eb1e3b589c643dd249181019190915273be0e383937d564d7ff0bc3b46c51f0bf8d5c311a9181019190915290565b6040516373cac13b60e01b815260040160405180910390fd5b805160ff811681146103d4575f5ffd5b919050565b5f5f5f606084860312156103eb575f5ffd5b83516001600160a01b0381168114610401575f5ffd5b925061040f602085016103c4565b915061041d604085016103c4565b90509250925092565b634e487b7160e01b5f52601160045260245ffd5b60ff818116838216029081169081811461045657610456610426565b5092915050565b5f60ff83168061047b57634e487b7160e01b5f52601260045260245ffd5b8060ff84160491505092915050565b6001600160801b03818116838216029081169081811461045657610456610426565b60805160a0516115446104d45f395f61018d01525f81816101d901526103b001526115445ff3fe608060405234801561000f575f5ffd5b50600436106100fb575f3560e01c8063c51d69f411610093578063d58eac6111610063578063d58eac6114610236578063deb6128614610272578063dfbf53ae14610285578063e2eb41ff1461028e575f5ffd5b8063c51d69f4146101d4578063d1f9c24d146101fb578063d30895e41461021b578063d4f77b1c1461022e575f5ffd5b806398491a61116100ce57806398491a611461016b5780639fecb69f1461017e578063b4e847a014610188578063c3c24654146101c1575f5ffd5b806359a5f12d146100ff578063650271d21461012f5780638927b030146101505780638bc5839b14610158575b5f5ffd5b600254610112906001600160a01b031681565b6040516001600160a01b0390911681526020015b60405180910390f35b61014261013d36600461135e565b6102dc565b604051908152602001610126565b61014261058f565b61014261016636600461137e565b61059d565b61014261017936600461137e565b61061e565b6101866106a2565b005b6101af7f000000000000000000000000000000000000000000000000000000000000000081565b60405160ff9091168152602001610126565b6101866101cf3660046113a4565b610882565b6101af7f000000000000000000000000000000000000000000000000000000000000000081565b5f5461020e90600160801b900460ff1681565b604051610126919061142f565b600154610112906001600160a01b031681565b610186610b1c565b5f54610251906fffffffffffffffffffffffffffffffff1681565b6040516fffffffffffffffffffffffffffffffff9091168152602001610126565b600354610112906001600160a01b031681565b61014260045481565b6102bf61029c36600461137e565b60056020525f908152604090208054600182015460029092015490919060ff1683565b604080519384526020840192909252151590820152606001610126565b5f60025f54600160801b900460ff1660038111156102fc576102fc61141b565b1461034e5760405162461bcd60e51b815260206004820152601460248201527f47616d65206e6f7420696e2070726f677265737300000000000000000000000060448201526064015b60405180910390fd5b6003546001600160a01b031633146103a85760405162461bcd60e51b815260206004820152600d60248201527f4e6f7420796f7572207475726e000000000000000000000000000000000000006044820152606401610345565b5f6103d660ff7f00000000000000000000000000000000000000000000000000000000000000001680611449565b9050806fffffffffffffffffffffffffffffffff168360ff161061043c5760405162461bcd60e51b815260206004820152601260248201527f496e76616c69642063656c6c20696e64657800000000000000000000000000006044820152606401610345565b6001545f906001600160a01b03163314610461576001546001600160a01b031661046e565b6002546001600160a01b03165b6001600160a01b0381165f908152600560205260408120919250600160ff87161b9061049982610c79565b90505f6104a9845f015483610c9d565b90506104bd816104b85f610c79565b610cd2565b96506104cd846001015483610d00565b60018501556104db87610d2e565b506104e68733610d3d565b506104f18786610d3d565b506104ff8460010154610d2e565b5061050e846001015433610d3d565b5061051d846001015486610d3d565b5060405160ff8916815233907fa0b977d49f53322b6132c432cda188cfeb15c19f14082685ceabe0e44a99c5439060200160405180910390a250506003805473ffffffffffffffffffffffffffffffffffffffff19166001600160a01b03949094169390931790925550919392505050565b5f610598610d4f565b905090565b6001545f906001600160a01b03838116911614806105c857506002546001600160a01b038381169116145b6106035760405162461bcd60e51b815260206004820152600c60248201526b2737ba103090383630bcb2b960a11b6044820152606401610345565b506001600160a01b03165f9081526005602052604090205490565b6001545f906001600160a01b038381169116148061064957506002546001600160a01b038381169116145b6106845760405162461bcd60e51b815260206004820152600c60248201526b2737ba103090383630bcb2b960a11b6044820152606401610345565b506001600160a01b03165f9081526005602052604090206001015490565b60025f54600160801b900460ff1660038111156106c1576106c161141b565b1461070e5760405162461bcd60e51b815260206004820152601460248201527f47616d65206e6f7420696e2070726f67726573730000000000000000000000006044820152606401610345565b6001546001600160a01b031633148061073157506002546001600160a01b031633145b61077d5760405162461bcd60e51b815260206004820152601660248201527f496e76616c69642077696e6e65722061646472657373000000000000000000006044820152606401610345565b6001545f906001600160a01b031633146107a2576001546001600160a01b03166107af565b6002546001600160a01b03165b6001600160a01b0381165f9081526005602052604081206001810154815493945090926107dc9190610c9d565b90505f6107ec82845f0154610d83565b9050610809816107fb33610db1565b61080487610db1565b610dc6565b600481905561081790610d2e565b5061082460045433610d3d565b5061083160045485610d3d565b505f805460ff60801b191670030000000000000000000000000000000017815560045460405190917f9dabd507c254a56224a199ec358ba519a267d74dca46f937118b21ad02c639af91a250505050565b60015f54600160801b900460ff1660038111156108a1576108a161141b565b146108ee5760405162461bcd60e51b815260206004820152601660248201527f4e6f7420696e20706c6163656d656e74207068617365000000000000000000006044820152606401610345565b6001546001600160a01b031633148061091157506002546001600160a01b031633145b61095d5760405162461bcd60e51b815260206004820152601960248201527f4e6f74206120706c6179657220696e20746869732067616d65000000000000006044820152606401610345565b335f9081526005602052604090206002015460ff16156109bf5760405162461bcd60e51b815260206004820152601460248201527f536869707320616c726561647920706c616365640000000000000000000000006044820152606401610345565b5f6109ff8484848080601f0160208091040260200160405190810160405280939291908181526020018383808284375f92019190915250610e0d92505050565b335f908152600560205260408120828155600201805460ff19166001179055909150610a2a90610c79565b335f90815260056020526040902060010155610a4581610d2e565b50610a508133610d3d565b5060405133907f05b55f80d887aa45b6a293f1b6901df35d2f9aa041b5f0405a2f6961a2912d43905f90a26001546001600160a01b03165f9081526005602052604090206002015460ff168015610ac25750600280546001600160a01b03165f908152600560205260409020015460ff165b15610b16575f805460ff60801b19167002000000000000000000000000000000001790556001546003805473ffffffffffffffffffffffffffffffffffffffff19166001600160a01b039092169190911790555b50505050565b5f5f54600160801b900460ff166003811115610b3a57610b3a61141b565b14610b875760405162461bcd60e51b815260206004820152601a60248201527f47616d65206e6f7420616363657074696e6720706c61796572730000000000006044820152606401610345565b6001546001600160a01b03163303610bed5760405162461bcd60e51b815260206004820152602360248201527f43616e6e6f74206a6f696e206173206f70706f6e656e74206f6620796f75727360448201526232b63360e91b6064820152608401610345565b6002546001600160a01b031615610c465760405162461bcd60e51b815260206004820152601760248201527f4f70706f6e656e7420616c7265616479206a6f696e65640000000000000000006044820152606401610345565b6002805473ffffffffffffffffffffffffffffffffffffffff1916331790555f805460ff60801b1916600160801b179055565b5f610c97826fffffffffffffffffffffffffffffffff166006610e1a565b92915050565b5f82610caf57610cac5f610c79565b92505b81610cc057610cbd5f610c79565b91505b610ccb83835f610ebc565b9392505050565b5f82610ce457610ce15f610c79565b92505b81610cf557610cf25f610c79565b91505b610ccb83835f610f8c565b5f82610d1257610d0f5f610c79565b92505b81610d2357610d205f610c79565b91505b610ccb83835f611016565b5f610d3982306110a0565b5090565b5f610d4883836110a0565b5090919050565b5f46600103610d5e5750600190565b4662aa36a703610d6f575061271190565b46617a6903610d7e57505f1990565b505f90565b5f82610d9557610d925f610c79565b92505b81610da657610da35f610c79565b91505b610ccb83835f611116565b5f610c97826001600160a01b03166007610e1a565b5f83610dd857610dd55f6111a0565b93505b82610de957610de65f610db1565b92505b81610dfa57610df75f610db1565b91505b610e058484846111bb565b949350505050565b5f610ccb83836006611251565b7f9e7b61f58c47dc699ac88507c4f5bb9f121c03808c5676a8078fe583e464970154604051639cd07acb60e01b81525f915f5160206115185f395f51905f52916001600160a01b0390911690639cd07acb90610e7c908790879060040161149b565b6020604051808303815f875af1158015610e98573d5f5f3e3d5ffd5b505050506040513d601f19601f82011682018060405250810190610e0591906114af565b5f5f8215610ecf5750600160f81b610ed2565b505f5b7f9e7b61f58c47dc699ac88507c4f5bb9f121c03808c5676a8078fe583e46497015460405163d99882d560e01b815260048101879052602481018690526001600160f81b0319831660448201525f5160206115185f395f51905f52916001600160a01b03169063d99882d5906064015b6020604051808303815f875af1158015610f5e573d5f5f3e3d5ffd5b505050506040513d601f19601f82011682018060405250810190610f8291906114af565b9695505050505050565b5f5f8215610f9f5750600160f81b610fa2565b505f5b7f9e7b61f58c47dc699ac88507c4f5bb9f121c03808c5676a8078fe583e4649701546040516336024b2f60e21b815260048101879052602481018690526001600160f81b0319831660448201525f5160206115185f395f51905f52916001600160a01b03169063d8092cbc90606401610f42565b5f5f82156110295750600160f81b61102c565b505f5b7f9e7b61f58c47dc699ac88507c4f5bb9f121c03808c5676a8078fe583e4649701546040516363a2db2960e01b815260048101879052602481018690526001600160f81b0319831660448201525f5160206115185f395f51905f52916001600160a01b0316906363a2db2990606401610f42565b5f5f5160206115185f395f51905f528054604051635ca4b5b160e11b8152600481018690526001600160a01b03858116602483015292935091169063b9496b62906044015f604051808303815f87803b1580156110fb575f5ffd5b505af115801561110d573d5f5f3e3d5ffd5b50505050505050565b5f5f82156111295750600160f81b61112c565b505f5b7f9e7b61f58c47dc699ac88507c4f5bb9f121c03808c5676a8078fe583e46497015460405163f77f3f1d60e01b815260048101879052602481018690526001600160f81b0319831660448201525f5160206115185f395f51905f52916001600160a01b03169063f77f3f1d90606401610f42565b5f610c97826111af575f6111b2565b60015b60ff165f610e1a565b5f805f5160206115185f395f51905f526001810154604051637702dcff60e01b81526004810188905260248101879052604481018690529192506001600160a01b031690637702dcff906064016020604051808303815f875af1158015611224573d5f5f3e3d5ffd5b505050506040513d601f19601f8201168201806040525081019061124891906114af565b95945050505050565b7f9e7b61f58c47dc699ac88507c4f5bb9f121c03808c5676a8078fe583e46497015460405163045fc19560e11b81525f915f5160206115185f395f51905f52916001600160a01b03909116906308bf832a906112b79088903390899089906004016114c6565b6020604051808303815f875af11580156112d3573d5f5f3e3d5ffd5b505050506040513d601f19601f820116820180604052508101906112f791906114af565b8154604051630f8e573b60e21b8152600481018390523360248201529193506001600160a01b031690633e395cec906044015f604051808303815f87803b158015611340575f5ffd5b505af1158015611352573d5f5f3e3d5ffd5b50505050509392505050565b5f6020828403121561136e575f5ffd5b813560ff81168114610ccb575f5ffd5b5f6020828403121561138e575f5ffd5b81356001600160a01b0381168114610ccb575f5ffd5b5f5f5f604084860312156113b6575f5ffd5b83359250602084013567ffffffffffffffff8111156113d3575f5ffd5b8401601f810186136113e3575f5ffd5b803567ffffffffffffffff8111156113f9575f5ffd5b86602082840101111561140a575f5ffd5b939660209190910195509293505050565b634e487b7160e01b5f52602160045260245ffd5b60208101600483106114435761144361141b565b91905290565b6fffffffffffffffffffffffffffffffff818116838216029081169081811461148057634e487b7160e01b5f52601160045260245ffd5b5092915050565b605481106114975761149761141b565b9052565b82815260408101610ccb6020830184611487565b5f602082840312156114bf575f5ffd5b5051919050565b8481526001600160a01b0384166020820152608060408201525f8351806080840152806020860160a085015e5f60a0828501015260a0601f19601f830116840101915050611248606083018461148756fe9e7b61f58c47dc699ac88507c4f5bb9f121c03808c5676a8078fe583e4649700a164736f6c634300081b000aa164736f6c634300081b000a",
  "linkReferences": {},
  "deployedLinkReferences": {}
}